:100000000C9434000C943E000C943E000C943E0082
:100010000C943E000C943E000C943E000C943E0068
:100020000C943E000C943E000C943E000C943E0058
:100030000C943E000C943E000C943E000C943E0048
:100040000C943E000C943E000C943E000C943E0038
:100050000C943E000C943E000C943E000C943E0028
:100060000C943E000C943E0011241FBECFEFD8E04C
:10007000DEBFCDBF0E9488000C94B8000C94000035
:100080008F929F92AF92BF92CF92DF92EF92FF92A8
:1000900069017A01052E5AE0660F771F881F991FA4
:1000A0005A95D1F7502D0F2EF4E68F2E912CA12CBE
:1000B000B12CF02DA50194010E9496002150310928
:1000C0003093890020938800C701B601052E5AE0BD
:1000D000660F771F881F991F5A95D1F7502DA501DC
:1000E00094010E9496002150310930938B00209397
:1000F0008A0083EA8093800089E080938100FF90EA
:10010000EF90DF90CF90BF90AF909F908F90089529
:1001100084B1866084B92EE130E040E050E062E3D3
:1001200070E080E090E00E944000F5CFA1E21A2E3E
:10013000AA1BBB1BFD010DC0AA1FBB1FEE1FFF1F8B
:10014000A217B307E407F50720F0A21BB30BE40BDB
:10015000F50B661F771F881F991F1A9469F7609522
:100160007095809590959B01AC01BD01CF010895DC
:04017000F894FFCF31
:00000001FF
