S01700006C6162355F70776D5F74696D6572312E7372656345
S11300000C9434000C9470000C94D6000C944600AC
S11300100C9446000C9446000C9446000C94460044
S11300200C9446000C9446000C9446000C94460034
S11300300C9446000C9446000C9446000C94460024
S11300400C9446000C9446000C9446000C94460014
S11300500C9446000C9446000C9446000C94460004
S11300600C9446000C94460011241FBECFEFD8E038
S1130070DEBFCDBF21E0A0E0B1E001C01D92A830F9
S1130080B207E1F70E9448000C9442010C9400006E
S113009084B1866084B983E08DBB8AE08093690073
S11300A07894FFCF052E5AE0660F771F881F991F9B
S11300B05A95D1F7502D24E630E040E050E00E94FC
S11300C020018FEF93E0821B930B90938B0080931E
S11300D08A0083E38093800089E0809381000895FF
S11300E01F920F920FB60F9211242F933F934F93A9
S11300F05F936F937F938F939F93AF93BF93EF938C
S1130100FF932FEF80E792E0215080409040E1F789
S113011000C000004A9913C0809104019091050128
S1130120A0910601B09107010A96A11DB11D80930B
S1130130040190930501A0930601B0930701609117
S113014004017091050180910601909107010E94BC
S11301505200FF91EF91BF91AF919F918F917F9149
S11301606F915F914F913F912F910F900FBE0F9020
S11301701F901895052E5AE0660F771F881F991F48
S11301805A95D1F7502D24E630E040E050E00E942B
S1130190200121503109309389002093880083E89D
S11301A08093800089E08093810008951F920F92CC
S11301B00FB60F9211242F933F934F935F936F9336
S11301C07F938F939F93AF93BF93EF93FF932FEFFF
S11301D080E792E0215080409040E1F700C00000A9
S11301E04B9913C08091000190910101A0910201EB
S11301F0B09103010596A11DB11D80930001909358
S11302000101A0930201B093030160910001709178
S1130210010180910201909103010E94BA00FF91B3
S1130220EF91BF91AF919F918F917F916F915F916A
S11302304F913F912F910F900FBE0F901F901895E3
S1130240A1E21A2EAA1BBB1BFD010DC0AA1FBB1FD6
S1130250EE1FFF1FA217B307E407F50720F0A21B48
S1130260B30BE40BF50B661F771F881F991F1A94B5
S113027069F760957095809590959B01AC01BD01DF
S10B0280CF010895F894FFCFAB
S9030000FC
