:100000000C9434000C943E000C943E000C943E0082
:100010000C943E000C943E000C943E000C943E0068
:100020000C943E000C943E000C943E000C943E0058
:100030000C943E000C943E000C943E000C943E0048
:100040000C943E000C943E000C943E000C943E0038
:100050000C943E000C943E000C943E000C943E0028
:100060000C943E000C943E0011241FBECFEFD8E04C
:10007000DEBFCDBF0E9440000C945C000C940000D9
:1000800080E284B981E003C081E001C080E018997A
:10009000FDCF2FEF30E792E0215030409040E1F764
:1000A00000C000001899F3CF8111EECF95B180E226
:0C00B000892785B981E0EBCFF894FFCFE1
:00000001FF
