S01F00006C6162335F45787465726E616C5F496E746572727570742E73726563D5
S11300000C9434000C9440000C945F000C943E005B
S11300100C943E000C943E000C943E000C943E0064
S11300200C943E000C943E000C943E000C943E0054
S11300300C943E000C943E000C943E000C943E0044
S11300400C943E000C943E000C943E000C943E0034
S11300500C943E000C943E000C943E000C943E0024
S11300600C943E000C943E0011241FBECFEFD8E048
S1130070DEBFCDBF0E947E000C9487000C9400006C
S11300801F920F920FB60F9211242F938F939F9369
S11300902FEF80E792E0215080409040E1F700C0CC
S11300A000004A9904C09BB180E289278BB99F91D3
S11300B08F912F910F900FBE0F901F9018951F9244
S11300C00F920FB60F9211242F938F939F932FEFBC
S11300D080E792E0215080409040E1F700C00000AA
S11300E04B9904C09BB180E289278BB99F918F9172
S11300F02F910F900FBE0F901F90189580E38AB92F
S113010083E08DBB8AE0809369007894FFCFF894F4
S1050110FFCF1B
S9030000FC
