:100000000C9461000C947E000C947E000C947E0095
:100010000C947E000C947E000C947E000C947E0068
:100020000C947E000C947E000C947E000C947E0058
:100030000C947E000C947E000C947E000C947E0048
:100040000C947E000C947E000C947E000C947E0038
:100050000C947E000C947E000C947E000C947E0028
:100060000C947E000C947E0008000000BE9224498F
:10007000123EABAAAA2ABECDCCCC4C3E00000080DA
:10008000BEABAAAAAA3E00000000BF000000803F4D
:100090000000000000084178D3BB4387D1133D190D
:1000A0000E3CC3BD4282AD2B3E68EC8276BED98F3A
:1000B000E1A93E4C80EFFFBE01C4FF7F3F0000007E
:1000C000000011241FBECFEFD8E0DEBFCDBF11E08E
:1000D000A0E0B1E0E4EFF8E002C005900D92A2309C
:1000E000B107D9F721E0A2E0B1E001C01D92A23032
:1000F000B207E1F70E941E020C9478040C940000F1
:100100001092C50088E08093C40088E18093C1000C
:1001100086E08093C20008959091C00095FFFCCFC7
:100120008093C60008950F931F93CF938C01C0E076
:1001300003C00E948C00CF5FF801EC0FF11D80819D
:100140008111F7CFCF911F910F9108958F929F92B8
:10015000AF92BF92CF92DF92EF92FF92CF936B015B
:100160007C010E9461020E94C7020E942B026F5F05
:100170007F4F63307105E9F13CF46130710579F02E
:1001800062307105C9F050C16530710509F4A1C034
:100190000CF45EC06630710509F4E8C045C1C701C2
:1001A000B6012AE030E040E050E00E94560480E3CF
:1001B000860F0E948C0038C10F2EFAE08F2E912CF2
:1001C000A12CB12CF02DC701B601A50194010E940C
:1001D0005604C62FCA01B901A50194010E94560414
:1001E00080E3860F0E948C0080E38C0F0E948C00BD
:1001F0001BC1C701B60124E630E040E050E00E9498
:1002000056040F2EFAE08F2E912CA12CB12CF02D3C
:10021000CA01B901A50194010E94560480E3860F2A
:100220000E948C00C701B601A50194010E945604EA
:10023000C62FCA01B901A50194010E94560480E3AA
:10024000860F0E948C0080E38C0F0E948C00ECC013
:10025000C701B60128EE33E040E050E00E945604AA
:100260000F2EFAE08F2E912CA12CB12CF02DCA016B
:10027000B901A50194010E94560480E3860F0E94F3
:100280008C00C701B60124E630E040E050E00E9457
:100290005604CA01B901A50194010E94560480E3E5
:1002A000860F0E948C00C701B601A50194010E942F
:1002B0005604C62FCA01B901A50194010E94560433
:1002C00080E3860F0E948C0080E38C0F0E948C00DC
:1002D000ABC0C701B60120E137E240E050E00E9428
:1002E000560480E3820F0E948C00C701B60128EEFD
:1002F00033E040E050E00E9456040F2EFAE08F2ECB
:10030000912CA12CB12CF02DCA01B901A5019401A9
:100310000E94560480E3860F0E948C00C701B6013C
:1003200024E630E040E050E00E945604CA01B901E2
:10033000A50194010E94560480E3860F0E948C0060
:10034000C701B601A50194010E945604C62FCA0137
:10035000B901A50194010E94560480E3860F0E9412
:100360008C0080E38C0F0E948C005EC0C701B60138
:1003700020EA36E841E050E00E94560480E3820F14
:100380000E948C00C701B60120E137E240E050E056
:100390000E9456040F2EFAE08F2E912CA12CB12C26
:1003A000F02DCA01B901A50194010E94560480E311
:1003B000860F0E948C00C701B60128EE33E040E0B2
:1003C00050E00E945604CA01B901A50194010E949F
:1003D000560480E3860F0E948C00C701B60124E614
:1003E00030E040E050E00E945604CA01B901A50186
:1003F00094010E94560480E3860F0E948C00C7017E
:10040000B601A50194010E945604C62FCA01B90184
:10041000A50194010E94560480E3860F0E948C007F
:1004200080E38C0F0E948C00CF91FF90EF90DF90C3
:10043000CF90BF90AF909F908F9008950E948000C2
:1004400060EF70E080E090E00E94A60080E091E024
:100450000E949300F5CF0E9432026894B1110C946F
:10046000C10208950E94A60288F09F5798F0B92F04
:100470009927B751B0F0E1F0660F771F881F991FD9
:100480001AF0BA95C9F714C0B13091F00E94C002B9
:10049000B1E008950C94C002672F782F8827B85FC9
:1004A00039F0B93FCCF3869577956795B395D9F731
:1004B0003EF490958095709561957F4F8F4F9F4F3B
:1004C0000895E89409C097FB3EF490958095709547
:1004D00061957F4F8F4F9F4F9923A9F0F92F96E990
:1004E000BB279395F695879577956795B795F11105
:1004F000F8CFFAF4BB0F11F460FF1BC06F5F7F4FA2
:100500008F4F9F4F16C0882311F096E911C07723B3
:1005100021F09EE8872F762F05C0662371F096E8BC
:10052000862F70E060E02AF09A95660F771F881F8B
:10053000DAF7880F9695879597F9089557FD9058A3
:10054000440F551F59F05F3F71F04795880F97FB97
:10055000991F61F09F3F79F0879508951216130651
:100560001406551FF2CF4695F1DF08C01616170680
:100570001806991FF1CF86957105610508940895B5
:10058000E894BB2766277727CB0197F908950E9447
:10059000D70229ED3BE54EED5EE30C941F0316F008
:1005A0000C94FF030C940D0468940C94F9030E94BE
:1005B000A602A8F39923C1F3AEF3DF93CF931F9361
:1005C0000F93FF92C92FDD2788232AF02197660F0A
:1005D000771F881FDAF720E030E040E85FEB9FE309
:1005E000883920F0803E38F021968F770E948D0365
:1005F000E8E6F0E004C00E948D03E5E9F0E00E9427
:1006000010048B01BE01EC01FB2E6F57710975952B
:10061000771F880B990B0E94630228E132E741E3C0
:100620005FE30E943203AF2D9801AE01FF900F915E
:100630001F91CF91DF910E94A4030C9445040E9466
:1006400032030C9445040E94370438F00E943E04A3
:1006500020F0952311F00C94F9030C940D0411244F
:100660000C94C1020E949E0270F3959FC1F3950FF6
:1006700050E0551F629FF001729FBB27F00DB11D26
:10068000639FAA27F00DB11DAA1F649F6627B00DB6
:10069000A11D661F829F2227B00DA11D621F739F9F
:1006A000B00DA11D621F839FA00D611D221F749FAD
:1006B0003327A00D611D231F849F600D211D822FF4
:1006C000762F6A2F11249F5750409AF0F1F088231B
:1006D0004AF0EE0FFF1FBB1F661F771F881F915048
:1006E0005040A9F79E3F510580F00C94F9030C94FB
:1006F000C1025F3FE4F3983ED4F386957795679502
:10070000B795F795E7959F5FC1F7FE2B880F911D71
:100710009695879597F908955058BB27AA270E9468
:10072000A4030C9445040E94370438F00E943E0450
:1007300020F039F49F3F19F426F40C940D040EF4C4
:10074000E095E7FB0C94F903E92F0E949E0258F311
:10075000BA17620773078407950720F079F4A6F5A6
:100760000C94C0020EF4E0950B2EBA2FA02D0B01B5
:10077000B90190010C01CA01A0011124FF27591BE6
:1007800099F0593F50F4503E68F11A16F040A22FEC
:10079000232F342F4427585FF3CF4695379527955D
:1007A000A795F0405395C9F77EF41F16BA0B620B5C
:1007B000730B840BBAF09150A1F0FF0FBB1F661FA3
:1007C000771F881FC2F70EC0BA0F621F731F841FE6
:1007D00048F4879577956795B795F7959E3F08F00C
:1007E000B0CF9395880F08F09927EE0F97958795CE
:1007F000089597F99F6780E870E060E008959F3F53
:1008000031F0915020F4879577956795B795880FCB
:10081000911D9695879597F908959FEF80EC08951F
:10082000DF93CF931F930F93FF92EF92DF927B01A1
:100830008C01689406C0DA2EEF010E943203FE019B
:10084000E894A5912591359145915591A6F3EF0135
:100850000E94A403FE019701A801DA9469F7DF90D2
:10086000EF90FF900F911F91CF91DF910895002499
:100870000A941616170618060906089500240A9405
:1008800012161306140605060895092E0394000C8B
:1008900011F4882352F0BB0F40F4BF2B11F460FF1A
:1008A00004C06F5F7F4F8F4F9F4F0895A1E21A2EB4
:1008B000AA1BBB1BFD010DC0AA1FBB1FEE1FFF1F04
:1008C000A217B307E407F50720F0A21BB30BE40B54
:1008D000F50B661F771F881F991F1A9469F760959B
:1008E0007095809590959B01AC01BD01CF01089555
:0408F000F894FFCFAA
:0208F4000A00F8
:00000001FF
