S01F00006C6162345F74696D6572305F6E6F726D616C5F6D6F64652E7372656306
S11300000C9434000C943E000C943E000C943E007E
S11300100C943E000C943E000C943E000C943E0064
S11300200C943E000C943E000C943E000C943E0054
S11300300C943E000C943E000C943E000C943E0044
S11300400C943E000C943E000C943E000C943E0034
S11300500C943E000C943E000C943E000C943E0024
S11300600C943E000C943E0011241FBECFEFD8E048
S1130070DEBFCDBF0E9459000C9462000C940000B6
S113008014BC83E085BD86E086BDA89BFECF81E0DD
S113009085BB0895CF93DF93C1E0D0E003C00E94F5
S11300A040002196C93E83E0D807CCF3DF91CF917D
S11300B0089580E284B995B180E2892785B90E94C8
S10B00C04A00F9CFF894FFCFC8
S9030000FC
