S02900006C6162345F74696D6572305F696E746572727570745F6E6F726D616C5F6D6F64652E73726563B0
S11300000C9434000C9446000C9446000C94460066
S11300100C9446000C9446000C9446000C94460044
S11300200C9446000C9446000C9446000C94460034
S11300300C9446000C9446000C9446000C94460024
S11300400C9448000C9446000C9446000C94460012
S11300500C9446000C9446000C9446000C94460004
S11300600C9446000C94460011241FBECFEFD8E038
S1130070DEBFCDBF21E0A0E0B1E001C01D92A230FF
S1130080B207E1F70E9471000C9481000C94000007
S11300901F920F920FB60F9211248F939F9380910A
S11300A00001909101010196909301018093000158
S11300B086E086BD9F918F910F900FBE0F901F9089
S11300C0189520910001309101012817390741F456
S11300D095B180E2892785B910920101109200013F
S11300E0089580E284B914BC83E085BD86E086BDB2
S11300F081E080936E00789484EF91E00E94610027
S1090100FBCFF894FFCFD1
S9030000FC
